:1000000000200010430000004100000041000000FB
:1000100041000000410000004100000041000000DC
:1000200041000000410000004100000041000000CC
:1000300041000000410000004100000041000000BC
:10004000FEE70B480B490C4A091A05D013780370D8
:10005000013201300139F9DC08480949091A04D094
:100060005B40037001300139FBDC00F0B3FCFEE7BC
:10007000000000102C010010100A000030010010D8
:1000800030010010400B0000A0F14103052B02D805
:100090003738C0B27047A0F16103052B01D857383B
:1000A000F7E73038C0B20A2828BFFF207047092878
:1000B0008CBF37303030C0B27047F8B506460020EC
:1000C0000D4600F0E7FB0446002000F0E3FB074686
:1000D000002000F0DFFB2046FFF7D6FF044638463D
:1000E000FFF7D2FF00EB0414E4B2AC42C8BFECB29D
:1000F0003546AB1B9C424FF000000BDC00F0CAFB06
:100100000D21002000F0D2FB0A21002000F0CEFBE0
:100110002046F8BD00F0BEFB0746002000F0BAFB09
:1001200001463846FFF7B0FF02460846FFF7ACFF2E
:1001300000EB021005F8010BDBE770B50646102056
:1001400091FBF0F0C0B20C46FFF7B1FF0146002072
:1001500000F0ACFB634203F00F0304F00F0058BF44
:100160005842C0B2FFF7A3FF0146002000F09EFBFB
:100170003A21002000F09AFB3546AB1B9C4209DC7B
:100180000D21002000F092FBBDE870400A21002004
:1001900000F08CBB28780009FFF789FF014600209A
:1001A00000F084FB15F8010B00F00F00FFF77FFF54
:1001B0000146002000F07AFBDFE710F0800F4FEAE5
:1001C000400018BF80F01B00C0B2704702460723F2
:1001D000002010B5FFF7F1FF41FA03F4E40744BF34
:1001E0005040C0B213F1FF33F4D210BD014B185C84
:1001F000704700BF000000102DE9F04F8146804697
:100200000026194B89B004240DF10F02039302EB71
:10021000060BC24627460025221DCDE9002307F024
:10022000030008AB18441AF8011B10F8140CFFF770
:10023000CDFF009A01374540BA42EDB2019BECD1A7
:10024000013C0BF8015FE4D10436102E08F10408DC
:10025000D9D104AAA35C09F804300134102CF9D1D7
:1002600009B0BDE8F08F00BF02030101F7B5042219
:1002700004460DEB02050023C2F1040614F8231016
:1002800059550133042BF9D100239918EF5C01F083
:100290000301013300EB8101042B8F55F5D1013AA5
:1002A00004F10104E7D103B0F0BD0549431E0F304E
:1002B00013F8012F8A5C83421A70F9D1704700BF8E
:1002C0000000001010B5431E01390F3013F8012F44
:1002D00011F8014F834282EA04021A70F6D110BD70
:1002E000F0B5427B03781C4C5940A35C054659404D
:1002F000012385B004AA02F8101D013303F00301A5
:100300000144097B15F8017F615CD6187940042B04
:1003100006F8011CF1D11546011D01AC00F1100CCD
:100320000F46002315F803E017F8016B86EA0E0666
:10033000E6540133042BF5D104318C4505F1040555
:1003400004F10404ECD10023D15CC1540133102B1F
:10035000FAD105B0F0BD00BF000000107047F0B545
:100360000E46044615461E4A85B01068516801AB1A
:1003700003C3128901AF1A80731E621E0F3613F871
:10038000011FB34202F8011FF9D129462046FFF7A9
:1003900099FF00262046FFF788FF2046FFF766FFFB
:1003A000FFF72AFFB95D2846FFF79AFF0136294675
:1003B0002046FFF787FF092EECD12046FFF775FF97
:1003C0002046FFF753FF9DF80D102846FFF788FFE2
:1003D0002946204605B0BDE8F040FFF773BF00BFD7
:1003E000DE090000F0B53F4893B000F0F9F80028AE
:1003F00072D00AAA15463C4B03F110061446186841
:100400005968083303C4B3422246F7D10EAA1646F0
:10041000364B03F11007144618685968083303C4B3
:10042000BB422246F7D1012101A8FFF746FE012871
:1004300056D19DF80430032BF5D8DFE803F0021500
:1004400035471024052103A88DF80C40FFF775FEF1
:10045000052103A88DF80C40FFF76FFE0023012152
:100460008DF80C3003A81CE010212846FFF725FE6C
:1004700010280446D7D1002102A8FFF71EFE074628
:100480000028D0D1012100F073F802AB3246294692
:1004900006A8FFF764FF3946384600F069F82146A0
:1004A00006A8FFF74AFEBEE70121002000F060F831
:1004B00002AB3246294606A8FFF751FF0021084645
:1004C00000F056F8102106A8FFF737FE0A2103A80E
:1004D000FFF7F3FD0146C5E74FF0FF3013B0F0BD65
:1004E0000020FBE700010010E8090000F809000007
:1004F000054B9B785843032390FBF3F0002801DD64
:100500000138FDD1704700BF3001001001460022C4
:1005100008B58A4200DB08BD4FF47A70FFF7E8FFA8
:100520000132F6E7024B00211B689869704700BF53
:100530002801001001280CD003D3022811D000207C
:100540007047094B1A6843F6FC73D05800F001005D
:100550007047054B1A6843F6FC73D058C0F340004F
:100560007047024BF6E700BF100100100C010010AD
:10057000012811D002D3022817D070470E4B1A68F9
:1005800043F6FC7321B1D15841F00101D1507047BD
:10059000D15821F00101F9E7074B1A6843F6FC73C3
:1005A00029B1D15841F00201F0E7044BF5E7D158E9
:1005B00021F00201EAE700BF100100100C01001059
:1005C000024B1B68586900F0010070471C010010C5
:1005D000024B1B685869C0F3401070471C010010A3
:1005E0002DE9F74F80460568A14810240368A14E05
:1005F000D3F880205FFA85FC42F48032C3F8802073
:100600009D4A3560116801228A67CA670C6140F211
:100610000124C1F8A420C1F8A8200C634C63D3F8CE
:100620008010944541F02001C3F88010D3F8801069
:10063000009041F04001C3F88010D3F8801041F4DD
:100640008051C3F88010596821F00201596059683F
:1006500041F00201596005D026D3BCF1020F05D04C
:100660000024E1E062464FF0030900E091464FF0BC
:10067000000EC5F307210191C5F307450124019F31
:100680000EF1010A0AFB07F1B1FBF4FB04FB1B109E
:1006900008B95D450AD00134B4F5807FF4D1BAF1D0
:1006A000200FD646EAD1DBE70022DCE74D009C3D77
:1006B000A42D0FD98D009C3DA42D40F2B980CD0012
:1006C0009C3DA42D40F2B68009019C39A42900F27A
:1006D000CD800320791E13294EEA401000F2AC8031
:1006E00000211962D3F83812BCF1000F40F0AA8043
:1006F00041F02001C3F83812C82300BF013BFCD1F0
:10070000009B1B681A645A6C42F001025A645A6CCE
:1007100022F001025A645A6C42F001025A645A6C87
:10072000D507FCD59860D3F8382222F08002C3F8B0
:100730003822DA68D107FCD5C3F870905A6F42F0BE
:1007400001025A675A6F22F001025A675A6F42F04B
:1007500001025A675A6FD207FCD5B1789C671429F9
:1007600073D80020454A12681061454A126802F5A4
:100770000040046844F001040460046844F002048A
:1007800004604048006800F50040046824F002045A
:10079000046043F6FC70145824F0010414501458FB
:1007A00024F002041450384AC3F898101368D9682A
:1007B00041F08001D96005219962996A41F0800178
:1007C00099620021596004211960D96821F08001E3
:1007D000D960D96841F00301D960D96821F00801D6
:1007E000D960D96821F00401D960FFF7E9FE00283B
:1007F00037D1FFF7EDFE04460028FAD0234AB3783C
:10080000126803EB830353611361402313606FF09D
:100810007F421F4B1B685A619A6198F803201AB3F4
:1008200005221A6100F0D2F8204603B0BDE8F08F2F
:1008300001204FE702204DE70F3F0A2F3FF652AF4E
:1008400002214EE721F0200154E7282903D80B4A62
:100850000120126888E7322987D8084A02201268E6
:1008600082E713681B68C0E70422DAE70446DBE787
:1008700004010010300100100801001024010010D4
:10088000100100100C0100101C01001020010010CC
:100890002801001008B510B9FFF792FEFBE7024BE4
:1008A0001B681868C0B208BD1C01001008B510B95B
:1008B000FFF78EFEFBE7024B1B68196008BD00BF07
:1008C0001C0100102DE9F041202541EA400C4FF0B9
:1008D0003C0E042738214FF024081820354E346888
:1008E00025603468656805F0F805282D39D014D8DE
:1008F000102D03D007D805B3082DF3D1C4F808C0D4
:100900002760A061EDE7182D1ED0202DEAD1142319
:10091000236028230220A36114E0402D2DD006D8A7
:10092000302D24D0382DDDD1C4F80080E9E7502DDA
:100930002AD0582D35D0482DE8E7142323602823EA
:100940000120A361BDE8F0812BB115780132A560CB
:100950002760A161C5E7142222602822A26100203D
:10096000F0E7013BF1D114222260A561F7E71423DF
:10097000236028230320A361E4E7012B8ABF2760BB
:10098000C4F818E0A161ACE7A468551C1470326883
:10099000013B012B8ABF1760C2F818E091612A461B
:1009A0009FE70BB1A3681370142233681A602822E2
:1009B0009A61D4E72001001013460A460121FFF78F
:1009C00081BF13460A460021FFF77CBF62B670471D
:1009D00072B6704740404940FFF704FD704701027E
:1009E0000408102040801B363243F6A8885A308D08
:1009F000313198A2E03707342B7E151628AED2A6E7
:080A0000ABF7158809CF4F3C4C
:080A08000000000000000000E6
:100A1000637C777BF26B6FC53001672BFED7AB76BB
:100A2000CA82C97DFA5947F0ADD4A2AF9CA472C066
:100A3000B7FD9326363FF7CC34A5E5F171D83115D3
:100A400004C723C31896059A071280E2EB27B275F4
:100A500009832C1A1B6E5AA0523BD6B329E32F846C
:100A600053D100ED20FCB15B6ACBBE394A4C58CF64
:100A7000D0EFAAFB434D338545F9027F503C9FA838
:100A800051A3408F929D38F5BCB6DA2110FFF3D206
:100A9000CD0C13EC5F974417C4A77E3D645D1973BA
:100AA00060814FDC222A908846EEB814DE5E0BDBB4
:100AB000E0323A0A4906245CC2D3AC629195E479EB
:100AC000E7C8376D8DD54EA96C56F4EA657AAE0845
:100AD000BA78252E1CA6B4C6E8DD741F4BBD8B8AE0
:100AE000703EB5664803F60E613557B986C11D9E46
:100AF000E1F8981169D98E949B1E87E9CE5528DFBD
:100B00008CA1890DBFE6426841992D0FB054BB16E8
:100B1000000C0C0100800440004004400000005024
:100B2000000001500000025000000350008000400F
:0C0B30000000004000C0034000E000E0B6
:00000001FF
