:1000000000200010430000004100000041000000FB
:1000100041000000410000004100000041000000DC
:1000200041000000410000004100000041000000CC
:1000300041000000410000004100000041000000BC
:10004000FEE70B480B490C4A091A05D013780370D8
:10005000013201300139F9DC08480949091A04D094
:100060005B40037001300139FBDC00F04DFBFEE723
:10007000000000102C0000102007000030000010CD
:100080003000001050070000A0F14103052B02D8FA
:100090003738C0B27047A0F16103052B01D857383B
:1000A000F7E73038C0B20A2828BFFF207047092878
:1000B0008CBF37303030C0B27047F8B506460020EC
:1000C0000D4600F081FA0446002000F07DFA074654
:1000D000002000F079FA2046FFF7D6FF04463846A4
:1000E000FFF7D2FF00EB0414E4B2AC42C8BFECB29D
:1000F0003546AB1B9C424FF000000BDC00F064FA6D
:100100000D21002000F06CFA0A21002000F068FAAE
:100110002046F8BD00F058FA0746002000F054FAD7
:1001200001463846FFF7B0FF02460846FFF7ACFF2E
:1001300000EB021005F8010BDBE770B50646080975
:100140000D46FFF7B4FF0146002000F049FA05F024
:100150000F00FFF7ACFF0146002000F041FA3A2102
:10016000002000F03DFA3446A31B9D4209DC0D211E
:10017000002000F035FABDE870400A21002000F0B0
:100180002FBA20780009FFF792FF0146002000F007
:1001900027FA14F8010B00F00F00FFF788FF014663
:1001A000002000F01DFADFE7F8B5CB1D03F4FC7367
:1001B00000AFADEB030D6C46451E0DEB0103A342F2
:1001C00004D10023994209DCBD46F8BD15F8016F42
:1001D000320902EB061203F8012DF0E7E25CC2548B
:1001E0000133EFE710B50E48A0B000F093F898B1D6
:1001F0000121002000F056F814216846FFF75DFF4A
:1002000001466846FFF7D0FF6846FFF796FF0021DA
:10021000084600F047F8EBE74FF0FF3020B010BD84
:1002200000000010054B9B785843032390FBF3F02C
:10023000002801DD0138FDD1704700BF30000010FB
:100240000146002208B58A4200DB08BD4FF47A70EF
:10025000FFF7E8FF0132F6E7024B00211B689869BF
:10026000704700BF2800001001280CD003D30228DB
:1002700011D000207047094B1A6843F6FC73D05820
:1002800000F001007047054B1A6843F6FC73D05824
:10029000C0F340007047024BF6E700BF10000010AB
:1002A0000C000010012811D002D3022817D070478B
:1002B0000E4B1A6843F6FC7321B1D15841F001018D
:1002C000D1507047D15821F00101F9E7074B1A6866
:1002D00043F6FC7329B1D15841F00201F0E7044B19
:1002E000F5E7D15821F00201EAE700BF1000001045
:1002F0000C000010024B1B68586900F001007047A9
:100300001C000010024B1B685869C0F34010704776
:100310001C0000102DE9F74F80460568A148102405
:100320000368A14ED3F880205FFA85FC42F4803246
:10033000C3F880209D4A3560116801228A67CA6728
:100340000C6140F20124C1F8A420C1F8A8200C637C
:100350004C63D3F88010944541F02001C3F880101D
:10036000D3F88010009041F04001C3F88010D3F81A
:10037000801041F48051C3F88010596821F00201C7
:100380005960596841F00201596005D026D3BCF18B
:10039000020F05D00024E1E062464FF0030900E0BF
:1003A00091464FF0000EC5F307210191C5F30745B3
:1003B0000124019F0EF1010A0AFB07F1B1FBF4FBD6
:1003C00004FB1B1008B95D450AD00134B4F5807FE9
:1003D000F4D1BAF1200FD646EAD1DBE70022DCE700
:1003E0004D009C3DA42D0FD98D009C3DA42D40F2C5
:1003F000B980CD009C3DA42D40F2B68009019C3906
:10040000A42900F2CD800320791E13294EEA401062
:1004100000F2AC8000211962D3F83812BCF1000F51
:1004200040F0AA8041F02001C3F83812C82300BF71
:10043000013BFCD1009B1B681A645A6C42F001021C
:100440005A645A6C22F001025A645A6C42F001025A
:100450005A645A6CD507FCD59860D3F8382222F03C
:100460008002C3F83822DA68D107FCD5C3F870904F
:100470005A6F42F001025A675A6F22F001025A671E
:100480005A6F42F001025A675A6FD207FCD5B17811
:100490009C67142973D80020454A12681061454AA8
:1004A000126802F50040046844F001040460046826
:1004B00044F0020404604048006800F5004004680D
:1004C00024F00204046043F6FC70145824F0010484
:1004D0001450145824F002041450384AC3F89810E9
:1004E0001368D96841F08001D96005219962996A41
:1004F00041F0800199620021596004211960D96896
:1005000021F08001D960D96841F00301D960D96830
:1005100021F00801D960D96821F00401D960FFF702
:10052000E9FE002837D1FFF7EDFE04460028FAD097
:10053000234AB378126803EB8303536113614023AA
:1005400013606FF07F421F4B1B685A619A6198F8E5
:1005500003201AB305221A6100F0D2F8204603B036
:10056000BDE8F08F01204FE702204DE70F3F0A2F33
:100570003FF652AF02214EE721F0200154E728292F
:1005800003D80B4A0120126888E7322987D8084A25
:100590000220126882E713681B68C0E70422DAE7CA
:1005A0000446DBE7040000103000001008000010D3
:1005B00024000010100000100C0000101C0000109F
:1005C000200000102800001008B510B9FFF792FEB7
:1005D000FBE7024B1B681868C0B208BD1C00001086
:1005E00008B510B9FFF78EFEFBE7024B1B681960D8
:1005F00008BD00BF1C0000102DE9F041202541EA94
:10060000400C4FF03C0E042738214FF024081820EE
:10061000354E346825603468656805F0F805282D86
:1006200039D014D8102D03D007D805B3082DF3D135
:10063000C4F808C02760A061EDE7182D1ED0202D5A
:10064000EAD11423236028230220A36114E0402D63
:100650002DD006D8302D24D0382DDDD1C4F800801F
:10066000E9E7502D2AD0582D35D0482DE8E714233E
:10067000236028230120A361BDE8F0812BB1157808
:100680000132A5602760A161C5E7142222602822FB
:10069000A2610020F0E7013BF1D114222260A561A4
:1006A000F7E71423236028230320A361E4E7012B49
:1006B0008ABF2760C4F818E0A161ACE7A468551CA4
:1006C00014703268013B012B8ABF1760C2F818E032
:1006D00091612A469FE70BB1A36813701422336817
:1006E0001A6028229A61D4E72000001013460A46B7
:1006F0000121FFF781BF13460A460021FFF77CBFA7
:1007000062B6704772B6704740404940FFF76AFDD5
:04071000704700002E
:0C071400000000000000000000000000D9
:10072000000C0C0100800440004004400000005018
:100730000000015000000250000003500080004003
:0C0740000000004000C0034000E000E0AA
:00000001FF
